{
  "_format": "hh-sol-artifact-1",
  "contractName": "NFT",
  "sourceName": "contracts/NFT.sol",
  "abi": [
    {
      "inputs": [],
      "stateMutability": "nonpayable",
      "type": "constructor"
    },
    {
      "anonymous": false,
      "inputs": [
        {
          "indexed": true,
          "internalType": "address",
          "name": "owner",
          "type": "address"
        },
        {
          "indexed": true,
          "internalType": "address",
          "name": "approved",
          "type": "address"
        },
        {
          "indexed": true,
          "internalType": "uint256",
          "name": "tokenId",
          "type": "uint256"
        }
      ],
      "name": "Approval",
      "type": "event"
    },
    {
      "anonymous": false,
      "inputs": [
        {
          "indexed": true,
          "internalType": "address",
          "name": "owner",
          "type": "address"
        },
        {
          "indexed": true,
          "internalType": "address",
          "name": "operator",
          "type": "address"
        },
        {
          "indexed": false,
          "internalType": "bool",
          "name": "approved",
          "type": "bool"
        }
      ],
      "name": "ApprovalForAll",
      "type": "event"
    },
    {
      "anonymous": false,
      "inputs": [
        {
          "indexed": true,
          "internalType": "address",
          "name": "from",
          "type": "address"
        },
        {
          "indexed": true,
          "internalType": "address",
          "name": "to",
          "type": "address"
        },
        {
          "indexed": true,
          "internalType": "uint256",
          "name": "tokenId",
          "type": "uint256"
        }
      ],
      "name": "Transfer",
      "type": "event"
    },
    {
      "inputs": [
        {
          "internalType": "address",
          "name": "to",
          "type": "address"
        },
        {
          "internalType": "uint256",
          "name": "tokenId",
          "type": "uint256"
        }
      ],
      "name": "approve",
      "outputs": [],
      "stateMutability": "nonpayable",
      "type": "function"
    },
    {
      "inputs": [
        {
          "internalType": "address",
          "name": "owner",
          "type": "address"
        }
      ],
      "name": "balanceOf",
      "outputs": [
        {
          "internalType": "uint256",
          "name": "",
          "type": "uint256"
        }
      ],
      "stateMutability": "view",
      "type": "function"
    },
    {
      "inputs": [],
      "name": "baseTokenURI",
      "outputs": [
        {
          "internalType": "string",
          "name": "",
          "type": "string"
        }
      ],
      "stateMutability": "view",
      "type": "function"
    },
    {
      "inputs": [
        {
          "internalType": "uint256",
          "name": "tokenId",
          "type": "uint256"
        }
      ],
      "name": "getApproved",
      "outputs": [
        {
          "internalType": "address",
          "name": "",
          "type": "address"
        }
      ],
      "stateMutability": "view",
      "type": "function"
    },
    {
      "inputs": [],
      "name": "getTokenCount",
      "outputs": [
        {
          "internalType": "uint256",
          "name": "",
          "type": "uint256"
        }
      ],
      "stateMutability": "view",
      "type": "function"
    },
    {
      "inputs": [
        {
          "internalType": "address",
          "name": "owner",
          "type": "address"
        },
        {
          "internalType": "address",
          "name": "operator",
          "type": "address"
        }
      ],
      "name": "isApprovedForAll",
      "outputs": [
        {
          "internalType": "bool",
          "name": "",
          "type": "bool"
        }
      ],
      "stateMutability": "view",
      "type": "function"
    },
    {
      "inputs": [
        {
          "internalType": "address",
          "name": "recipient",
          "type": "address"
        }
      ],
      "name": "mintTo",
      "outputs": [
        {
          "internalType": "uint256",
          "name": "",
          "type": "uint256"
        }
      ],
      "stateMutability": "payable",
      "type": "function"
    },
    {
      "inputs": [],
      "name": "name",
      "outputs": [
        {
          "internalType": "string",
          "name": "",
          "type": "string"
        }
      ],
      "stateMutability": "view",
      "type": "function"
    },
    {
      "inputs": [
        {
          "internalType": "uint256",
          "name": "tokenId",
          "type": "uint256"
        }
      ],
      "name": "ownerOf",
      "outputs": [
        {
          "internalType": "address",
          "name": "",
          "type": "address"
        }
      ],
      "stateMutability": "view",
      "type": "function"
    },
    {
      "inputs": [
        {
          "internalType": "address",
          "name": "from",
          "type": "address"
        },
        {
          "internalType": "address",
          "name": "to",
          "type": "address"
        },
        {
          "internalType": "uint256",
          "name": "tokenId",
          "type": "uint256"
        }
      ],
      "name": "safeTransferFrom",
      "outputs": [],
      "stateMutability": "nonpayable",
      "type": "function"
    },
    {
      "inputs": [
        {
          "internalType": "address",
          "name": "from",
          "type": "address"
        },
        {
          "internalType": "address",
          "name": "to",
          "type": "address"
        },
        {
          "internalType": "uint256",
          "name": "tokenId",
          "type": "uint256"
        },
        {
          "internalType": "bytes",
          "name": "data",
          "type": "bytes"
        }
      ],
      "name": "safeTransferFrom",
      "outputs": [],
      "stateMutability": "nonpayable",
      "type": "function"
    },
    {
      "inputs": [
        {
          "internalType": "address",
          "name": "operator",
          "type": "address"
        },
        {
          "internalType": "bool",
          "name": "approved",
          "type": "bool"
        }
      ],
      "name": "setApprovalForAll",
      "outputs": [],
      "stateMutability": "nonpayable",
      "type": "function"
    },
    {
      "inputs": [
        {
          "internalType": "string",
          "name": "_baseTokenURI",
          "type": "string"
        }
      ],
      "name": "setBaseTokenURI",
      "outputs": [],
      "stateMutability": "nonpayable",
      "type": "function"
    },
    {
      "inputs": [
        {
          "internalType": "bytes4",
          "name": "interfaceId",
          "type": "bytes4"
        }
      ],
      "name": "supportsInterface",
      "outputs": [
        {
          "internalType": "bool",
          "name": "",
          "type": "bool"
        }
      ],
      "stateMutability": "view",
      "type": "function"
    },
    {
      "inputs": [],
      "name": "symbol",
      "outputs": [
        {
          "internalType": "string",
          "name": "",
          "type": "string"
        }
      ],
      "stateMutability": "view",
      "type": "function"
    },
    {
      "inputs": [
        {
          "internalType": "uint256",
          "name": "tokenId",
          "type": "uint256"
        }
      ],
      "name": "tokenURI",
      "outputs": [
        {
          "internalType": "string",
          "name": "",
          "type": "string"
        }
      ],
      "stateMutability": "view",
      "type": "function"
    },
    {
      "inputs": [
        {
          "internalType": "address",
          "name": "from",
          "type": "address"
        },
        {
          "internalType": "address",
          "name": "to",
          "type": "address"
        },
        {
          "internalType": "uint256",
          "name": "tokenId",
          "type": "uint256"
        }
      ],
      "name": "transferFrom",
      "outputs": [],
      "stateMutability": "nonpayable",
      "type": "function"
    }
  ],
  "bytecode": "0x608060405266038d7ea4c680006007553480156200001c57600080fd5b506040518060400160405280600b81526020017f4e46545475746f7269616c0000000000000000000000000000000000000000008152506040518060400160405280600381526020017f4e465400000000000000000000000000000000000000000000000000000000008152508160009080519060200190620000a1929190620000eb565b508060019080519060200190620000ba929190620000eb565b5050506040518060200160405280600081525060089080519060200190620000e4929190620000eb565b5062000200565b828054620000f9906200019b565b90600052602060002090601f0160209004810192826200011d576000855562000169565b82601f106200013857805160ff191683800117855562000169565b8280016001018555821562000169579182015b82811115620001685782518255916020019190600101906200014b565b5b5090506200017891906200017c565b5090565b5b80821115620001975760008160009055506001016200017d565b5090565b60006002820490506001821680620001b457607f821691505b60208210811415620001cb57620001ca620001d1565b5b50919050565b7f4e487b7100000000000000000000000000000000000000000000000000000000600052602260045260246000fd5b61293180620002106000396000f3fe6080604052600436106100fe5760003560e01c806370a0823111610095578063a22cb46511610064578063a22cb4651461034c578063b88d4fde14610375578063c87b56dd1461039e578063d547cfb7146103db578063e985e9c514610406576100fe565b806370a0823114610289578063755edd17146102c657806378a89567146102f657806395d89b4114610321576100fe565b806323b872dd116100d157806323b872dd146101d157806330176e13146101fa57806342842e0e146102235780636352211e1461024c576100fe565b806301ffc9a71461010357806306fdde0314610140578063081812fc1461016b578063095ea7b3146101a8575b600080fd5b34801561010f57600080fd5b5061012a60048036038101906101259190611c9d565b610443565b6040516101379190612035565b60405180910390f35b34801561014c57600080fd5b50610155610525565b6040516101629190612050565b60405180910390f35b34801561017757600080fd5b50610192600480360381019061018d9190611d30565b6105b7565b60405161019f9190611fce565b60405180910390f35b3480156101b457600080fd5b506101cf60048036038101906101ca9190611c61565b6105fd565b005b3480156101dd57600080fd5b506101f860048036038101906101f39190611b5b565b610715565b005b34801561020657600080fd5b50610221600480360381019061021c9190611cef565b610775565b005b34801561022f57600080fd5b5061024a60048036038101906102459190611b5b565b61078f565b005b34801561025857600080fd5b50610273600480360381019061026e9190611d30565b6107af565b6040516102809190611fce565b60405180910390f35b34801561029557600080fd5b506102b060048036038101906102ab9190611af6565b610861565b6040516102bd91906121d2565b60405180910390f35b6102e060048036038101906102db9190611af6565b610919565b6040516102ed91906121d2565b60405180910390f35b34801561030257600080fd5b5061030b610954565b60405161031891906121d2565b60405180910390f35b34801561032d57600080fd5b50610336610965565b6040516103439190612050565b60405180910390f35b34801561035857600080fd5b50610373600480360381019061036e9190611c25565b6109f7565b005b34801561038157600080fd5b5061039c60048036038101906103979190611baa565b610a0d565b005b3480156103aa57600080fd5b506103c560048036038101906103c09190611d30565b610a6f565b6040516103d29190612050565b60405180910390f35b3480156103e757600080fd5b506103f0610ad7565b6040516103fd9190612050565b60405180910390f35b34801561041257600080fd5b5061042d60048036038101906104289190611b1f565b610b65565b60405161043a9190612035565b60405180910390f35b60007f80ac58cd000000000000000000000000000000000000000000000000000000007bffffffffffffffffffffffffffffffffffffffffffffffffffffffff1916827bffffffffffffffffffffffffffffffffffffffffffffffffffffffff1916148061050e57507f5b5e139f000000000000000000000000000000000000000000000000000000007bffffffffffffffffffffffffffffffffffffffffffffffffffffffff1916827bffffffffffffffffffffffffffffffffffffffffffffffffffffffff1916145b8061051e575061051d82610bf9565b5b9050919050565b60606000805461053490612428565b80601f016020809104026020016040519081016040528092919081815260200182805461056090612428565b80156105ad5780601f10610582576101008083540402835291602001916105ad565b820191906000526020600020905b81548152906001019060200180831161059057829003601f168201915b5050505050905090565b60006105c282610c63565b6004600083815260200190815260200160002060009054906101000a900473ffffffffffffffffffffffffffffffffffffffff169050919050565b6000610608826107af565b90508073ffffffffffffffffffffffffffffffffffffffff168373ffffffffffffffffffffffffffffffffffffffff161415610679576040517f08c379a000000000000000000000000000000000000000000000000000000000815260040161067090612192565b60405180910390fd5b8073ffffffffffffffffffffffffffffffffffffffff16610698610cae565b73ffffffffffffffffffffffffffffffffffffffff1614806106c757506106c6816106c1610cae565b610b65565b5b610706576040517f08c379a00000000000000000000000000000000000000000000000000000000081526004016106fd90612132565b60405180910390fd5b6107108383610cb6565b505050565b610726610720610cae565b82610d6f565b610765576040517f08c379a000000000000000000000000000000000000000000000000000000000815260040161075c906121b2565b60405180910390fd5b610770838383610e04565b505050565b806008908051906020019061078b92919061191a565b5050565b6107aa83838360405180602001604052806000815250610a0d565b505050565b6000806002600084815260200190815260200160002060009054906101000a900473ffffffffffffffffffffffffffffffffffffffff169050600073ffffffffffffffffffffffffffffffffffffffff168173ffffffffffffffffffffffffffffffffffffffff161415610858576040517f08c379a000000000000000000000000000000000000000000000000000000000815260040161084f90612172565b60405180910390fd5b80915050919050565b60008073ffffffffffffffffffffffffffffffffffffffff168273ffffffffffffffffffffffffffffffffffffffff1614156108d2576040517f08c379a00000000000000000000000000000000000000000000000000000000081526004016108c990612112565b60405180910390fd5b600360008373ffffffffffffffffffffffffffffffffffffffff1673ffffffffffffffffffffffffffffffffffffffff168152602001908152602001600020549050919050565b6000600754341461092957600080fd5b610933600661106b565b600061093f6006611081565b905061094b838261108f565b80915050919050565b60006109606006611081565b905090565b60606001805461097490612428565b80601f01602080910402602001604051908101604052809291908181526020018280546109a090612428565b80156109ed5780601f106109c2576101008083540402835291602001916109ed565b820191906000526020600020905b8154815290600101906020018083116109d057829003601f168201915b5050505050905090565b610a09610a02610cae565b83836110ad565b5050565b610a1e610a18610cae565b83610d6f565b610a5d576040517f08c379a0000000000000000000000000000000000000000000000000000000008152600401610a54906121b2565b60405180910390fd5b610a698484848461121a565b50505050565b6060610a7a82610c63565b6000610a84611276565b90506000815111610aa45760405180602001604052806000815250610acf565b80610aae84611308565b604051602001610abf929190611faa565b6040516020818303038152906040525b915050919050565b60088054610ae490612428565b80601f0160208091040260200160405190810160405280929190818152602001828054610b1090612428565b8015610b5d5780601f10610b3257610100808354040283529160200191610b5d565b820191906000526020600020905b815481529060010190602001808311610b4057829003601f168201915b505050505081565b6000600560008473ffffffffffffffffffffffffffffffffffffffff1673ffffffffffffffffffffffffffffffffffffffff16815260200190815260200160002060008373ffffffffffffffffffffffffffffffffffffffff1673ffffffffffffffffffffffffffffffffffffffff16815260200190815260200160002060009054906101000a900460ff16905092915050565b60007f01ffc9a7000000000000000000000000000000000000000000000000000000007bffffffffffffffffffffffffffffffffffffffffffffffffffffffff1916827bffffffffffffffffffffffffffffffffffffffffffffffffffffffff1916149050919050565b610c6c816114b5565b610cab576040517f08c379a0000000000000000000000000000000000000000000000000000000008152600401610ca290612172565b60405180910390fd5b50565b600033905090565b816004600083815260200190815260200160002060006101000a81548173ffffffffffffffffffffffffffffffffffffffff021916908373ffffffffffffffffffffffffffffffffffffffff160217905550808273ffffffffffffffffffffffffffffffffffffffff16610d29836107af565b73ffffffffffffffffffffffffffffffffffffffff167f8c5be1e5ebec7d5bd14f71427d1e84f3dd0314c0f7b2291e5b200ac8c7c3b92560405160405180910390a45050565b600080610d7b836107af565b90508073ffffffffffffffffffffffffffffffffffffffff168473ffffffffffffffffffffffffffffffffffffffff161480610dbd5750610dbc8185610b65565b5b80610dfb57508373ffffffffffffffffffffffffffffffffffffffff16610de3846105b7565b73ffffffffffffffffffffffffffffffffffffffff16145b91505092915050565b8273ffffffffffffffffffffffffffffffffffffffff16610e24826107af565b73ffffffffffffffffffffffffffffffffffffffff1614610e7a576040517f08c379a0000000000000000000000000000000000000000000000000000000008152600401610e7190612092565b60405180910390fd5b600073ffffffffffffffffffffffffffffffffffffffff168273ffffffffffffffffffffffffffffffffffffffff161415610eea576040517f08c379a0000000000000000000000000000000000000000000000000000000008152600401610ee1906120d2565b60405180910390fd5b610ef5838383611521565b610f00600082610cb6565b6001600360008573ffffffffffffffffffffffffffffffffffffffff1673ffffffffffffffffffffffffffffffffffffffff1681526020019081526020016000206000828254610f50919061233e565b925050819055506001600360008473ffffffffffffffffffffffffffffffffffffffff1673ffffffffffffffffffffffffffffffffffffffff1681526020019081526020016000206000828254610fa791906122b7565b92505081905550816002600083815260200190815260200160002060006101000a81548173ffffffffffffffffffffffffffffffffffffffff021916908373ffffffffffffffffffffffffffffffffffffffff160217905550808273ffffffffffffffffffffffffffffffffffffffff168473ffffffffffffffffffffffffffffffffffffffff167fddf252ad1be2c89b69c2b068fc378daa952ba7f163c4a11628f55a4df523b3ef60405160405180910390a4611066838383611526565b505050565b6001816000016000828254019250508190555050565b600081600001549050919050565b6110a982826040518060200160405280600081525061152b565b5050565b8173ffffffffffffffffffffffffffffffffffffffff168373ffffffffffffffffffffffffffffffffffffffff16141561111c576040517f08c379a0000000000000000000000000000000000000000000000000000000008152600401611113906120f2565b60405180910390fd5b80600560008573ffffffffffffffffffffffffffffffffffffffff1673ffffffffffffffffffffffffffffffffffffffff16815260200190815260200160002060008473ffffffffffffffffffffffffffffffffffffffff1673ffffffffffffffffffffffffffffffffffffffff16815260200190815260200160002060006101000a81548160ff0219169083151502179055508173ffffffffffffffffffffffffffffffffffffffff168373ffffffffffffffffffffffffffffffffffffffff167f17307eab39ab6107e8899845ad3d59bd9653f200f220920489ca2b5937696c318360405161120d9190612035565b60405180910390a3505050565b611225848484610e04565b61123184848484611586565b611270576040517f08c379a000000000000000000000000000000000000000000000000000000000815260040161126790612072565b60405180910390fd5b50505050565b60606008805461128590612428565b80601f01602080910402602001604051908101604052809291908181526020018280546112b190612428565b80156112fe5780601f106112d3576101008083540402835291602001916112fe565b820191906000526020600020905b8154815290600101906020018083116112e157829003601f168201915b5050505050905090565b60606000821415611350576040518060400160405280600181526020017f300000000000000000000000000000000000000000000000000000000000000081525090506114b0565b600082905060005b6000821461138257808061136b9061248b565b915050600a8261137b919061230d565b9150611358565b60008167ffffffffffffffff8111156113c4577f4e487b7100000000000000000000000000000000000000000000000000000000600052604160045260246000fd5b6040519080825280601f01601f1916602001820160405280156113f65781602001600182028036833780820191505090505b5090505b600085146114a95760018261140f919061233e565b9150600a8561141e91906124d4565b603061142a91906122b7565b60f81b818381518110611466577f4e487b7100000000000000000000000000000000000000000000000000000000600052603260045260246000fd5b60200101907effffffffffffffffffffffffffffffffffffffffffffffffffffffffffffff1916908160001a905350600a856114a2919061230d565b94506113fa565b8093505050505b919050565b60008073ffffffffffffffffffffffffffffffffffffffff166002600084815260200190815260200160002060009054906101000a900473ffffffffffffffffffffffffffffffffffffffff1673ffffffffffffffffffffffffffffffffffffffff1614159050919050565b505050565b505050565b611535838361171d565b6115426000848484611586565b611581576040517f08c379a000000000000000000000000000000000000000000000000000000000815260040161157890612072565b60405180910390fd5b505050565b60006115a78473ffffffffffffffffffffffffffffffffffffffff166118f7565b15611710578373ffffffffffffffffffffffffffffffffffffffff1663150b7a026115d0610cae565b8786866040518563ffffffff1660e01b81526004016115f29493929190611fe9565b602060405180830381600087803b15801561160c57600080fd5b505af192505050801561163d57506040513d601f19601f8201168201806040525081019061163a9190611cc6565b60015b6116c0573d806000811461166d576040519150601f19603f3d011682016040523d82523d6000602084013e611672565b606091505b506000815114156116b8576040517f08c379a00000000000000000000000000000000000000000000000000000000081526004016116af90612072565b60405180910390fd5b805181602001fd5b63150b7a0260e01b7bffffffffffffffffffffffffffffffffffffffffffffffffffffffff1916817bffffffffffffffffffffffffffffffffffffffffffffffffffffffff191614915050611715565b600190505b949350505050565b600073ffffffffffffffffffffffffffffffffffffffff168273ffffffffffffffffffffffffffffffffffffffff16141561178d576040517f08c379a000000000000000000000000000000000000000000000000000000000815260040161178490612152565b60405180910390fd5b611796816114b5565b156117d6576040517f08c379a00000000000000000000000000000000000000000000000000000000081526004016117cd906120b2565b60405180910390fd5b6117e260008383611521565b6001600360008473ffffffffffffffffffffffffffffffffffffffff1673ffffffffffffffffffffffffffffffffffffffff168152602001908152602001600020600082825461183291906122b7565b92505081905550816002600083815260200190815260200160002060006101000a81548173ffffffffffffffffffffffffffffffffffffffff021916908373ffffffffffffffffffffffffffffffffffffffff160217905550808273ffffffffffffffffffffffffffffffffffffffff16600073ffffffffffffffffffffffffffffffffffffffff167fddf252ad1be2c89b69c2b068fc378daa952ba7f163c4a11628f55a4df523b3ef60405160405180910390a46118f360008383611526565b5050565b6000808273ffffffffffffffffffffffffffffffffffffffff163b119050919050565b82805461192690612428565b90600052602060002090601f016020900481019282611948576000855561198f565b82601f1061196157805160ff191683800117855561198f565b8280016001018555821561198f579182015b8281111561198e578251825591602001919060010190611973565b5b50905061199c91906119a0565b5090565b5b808211156119b95760008160009055506001016119a1565b5090565b60006119d06119cb84612212565b6121ed565b9050828152602081018484840111156119e857600080fd5b6119f38482856123e6565b509392505050565b6000611a0e611a0984612243565b6121ed565b905082815260208101848484011115611a2657600080fd5b611a318482856123e6565b509392505050565b600081359050611a488161289f565b92915050565b600081359050611a5d816128b6565b92915050565b600081359050611a72816128cd565b92915050565b600081519050611a87816128cd565b92915050565b600082601f830112611a9e57600080fd5b8135611aae8482602086016119bd565b91505092915050565b600082601f830112611ac857600080fd5b8135611ad88482602086016119fb565b91505092915050565b600081359050611af0816128e4565b92915050565b600060208284031215611b0857600080fd5b6000611b1684828501611a39565b91505092915050565b60008060408385031215611b3257600080fd5b6000611b4085828601611a39565b9250506020611b5185828601611a39565b9150509250929050565b600080600060608486031215611b7057600080fd5b6000611b7e86828701611a39565b9350506020611b8f86828701611a39565b9250506040611ba086828701611ae1565b9150509250925092565b60008060008060808587031215611bc057600080fd5b6000611bce87828801611a39565b9450506020611bdf87828801611a39565b9350506040611bf087828801611ae1565b925050606085013567ffffffffffffffff811115611c0d57600080fd5b611c1987828801611a8d565b91505092959194509250565b60008060408385031215611c3857600080fd5b6000611c4685828601611a39565b9250506020611c5785828601611a4e565b9150509250929050565b60008060408385031215611c7457600080fd5b6000611c8285828601611a39565b9250506020611c9385828601611ae1565b9150509250929050565b600060208284031215611caf57600080fd5b6000611cbd84828501611a63565b91505092915050565b600060208284031215611cd857600080fd5b6000611ce684828501611a78565b91505092915050565b600060208284031215611d0157600080fd5b600082013567ffffffffffffffff811115611d1b57600080fd5b611d2784828501611ab7565b91505092915050565b600060208284031215611d4257600080fd5b6000611d5084828501611ae1565b91505092915050565b611d6281612372565b82525050565b611d7181612384565b82525050565b6000611d8282612274565b611d8c818561228a565b9350611d9c8185602086016123f5565b611da5816125c1565b840191505092915050565b6000611dbb8261227f565b611dc5818561229b565b9350611dd58185602086016123f5565b611dde816125c1565b840191505092915050565b6000611df48261227f565b611dfe81856122ac565b9350611e0e8185602086016123f5565b80840191505092915050565b6000611e2760328361229b565b9150611e32826125d2565b604082019050919050565b6000611e4a60258361229b565b9150611e5582612621565b604082019050919050565b6000611e6d601c8361229b565b9150611e7882612670565b602082019050919050565b6000611e9060248361229b565b9150611e9b82612699565b604082019050919050565b6000611eb360198361229b565b9150611ebe826126e8565b602082019050919050565b6000611ed660298361229b565b9150611ee182612711565b604082019050919050565b6000611ef9603e8361229b565b9150611f0482612760565b604082019050919050565b6000611f1c60208361229b565b9150611f27826127af565b602082019050919050565b6000611f3f60188361229b565b9150611f4a826127d8565b602082019050919050565b6000611f6260218361229b565b9150611f6d82612801565b604082019050919050565b6000611f85602e8361229b565b9150611f9082612850565b604082019050919050565b611fa4816123dc565b82525050565b6000611fb68285611de9565b9150611fc28284611de9565b91508190509392505050565b6000602082019050611fe36000830184611d59565b92915050565b6000608082019050611ffe6000830187611d59565b61200b6020830186611d59565b6120186040830185611f9b565b818103606083015261202a8184611d77565b905095945050505050565b600060208201905061204a6000830184611d68565b92915050565b6000602082019050818103600083015261206a8184611db0565b905092915050565b6000602082019050818103600083015261208b81611e1a565b9050919050565b600060208201905081810360008301526120ab81611e3d565b9050919050565b600060208201905081810360008301526120cb81611e60565b9050919050565b600060208201905081810360008301526120eb81611e83565b9050919050565b6000602082019050818103600083015261210b81611ea6565b9050919050565b6000602082019050818103600083015261212b81611ec9565b9050919050565b6000602082019050818103600083015261214b81611eec565b9050919050565b6000602082019050818103600083015261216b81611f0f565b9050919050565b6000602082019050818103600083015261218b81611f32565b9050919050565b600060208201905081810360008301526121ab81611f55565b9050919050565b600060208201905081810360008301526121cb81611f78565b9050919050565b60006020820190506121e76000830184611f9b565b92915050565b60006121f7612208565b9050612203828261245a565b919050565b6000604051905090565b600067ffffffffffffffff82111561222d5761222c612592565b5b612236826125c1565b9050602081019050919050565b600067ffffffffffffffff82111561225e5761225d612592565b5b612267826125c1565b9050602081019050919050565b600081519050919050565b600081519050919050565b600082825260208201905092915050565b600082825260208201905092915050565b600081905092915050565b60006122c2826123dc565b91506122cd836123dc565b9250827fffffffffffffffffffffffffffffffffffffffffffffffffffffffffffffffff0382111561230257612301612505565b5b828201905092915050565b6000612318826123dc565b9150612323836123dc565b92508261233357612332612534565b5b828204905092915050565b6000612349826123dc565b9150612354836123dc565b92508282101561236757612366612505565b5b828203905092915050565b600061237d826123bc565b9050919050565b60008115159050919050565b60007fffffffff0000000000000000000000000000000000000000000000000000000082169050919050565b600073ffffffffffffffffffffffffffffffffffffffff82169050919050565b6000819050919050565b82818337600083830152505050565b60005b838110156124135780820151818401526020810190506123f8565b83811115612422576000848401525b50505050565b6000600282049050600182168061244057607f821691505b6020821081141561245457612453612563565b5b50919050565b612463826125c1565b810181811067ffffffffffffffff8211171561248257612481612592565b5b80604052505050565b6000612496826123dc565b91507fffffffffffffffffffffffffffffffffffffffffffffffffffffffffffffffff8214156124c9576124c8612505565b5b600182019050919050565b60006124df826123dc565b91506124ea836123dc565b9250826124fa576124f9612534565b5b828206905092915050565b7f4e487b7100000000000000000000000000000000000000000000000000000000600052601160045260246000fd5b7f4e487b7100000000000000000000000000000000000000000000000000000000600052601260045260246000fd5b7f4e487b7100000000000000000000000000000000000000000000000000000000600052602260045260246000fd5b7f4e487b7100000000000000000000000000000000000000000000000000000000600052604160045260246000fd5b6000601f19601f8301169050919050565b7f4552433732313a207472616e7366657220746f206e6f6e20455243373231526560008201527f63656976657220696d706c656d656e7465720000000000000000000000000000602082015250565b7f4552433732313a207472616e736665722066726f6d20696e636f72726563742060008201527f6f776e6572000000000000000000000000000000000000000000000000000000602082015250565b7f4552433732313a20746f6b656e20616c7265616479206d696e74656400000000600082015250565b7f4552433732313a207472616e7366657220746f20746865207a65726f2061646460008201527f7265737300000000000000000000000000000000000000000000000000000000602082015250565b7f4552433732313a20617070726f766520746f2063616c6c657200000000000000600082015250565b7f4552433732313a2061646472657373207a65726f206973206e6f74206120766160008201527f6c6964206f776e65720000000000000000000000000000000000000000000000602082015250565b7f4552433732313a20617070726f76652063616c6c6572206973206e6f7420746f60008201527f6b656e206f776e6572206e6f7220617070726f76656420666f7220616c6c0000602082015250565b7f4552433732313a206d696e7420746f20746865207a65726f2061646472657373600082015250565b7f4552433732313a20696e76616c696420746f6b656e2049440000000000000000600082015250565b7f4552433732313a20617070726f76616c20746f2063757272656e74206f776e6560008201527f7200000000000000000000000000000000000000000000000000000000000000602082015250565b7f4552433732313a2063616c6c6572206973206e6f7420746f6b656e206f776e6560008201527f72206e6f7220617070726f766564000000000000000000000000000000000000602082015250565b6128a881612372565b81146128b357600080fd5b50565b6128bf81612384565b81146128ca57600080fd5b50565b6128d681612390565b81146128e157600080fd5b50565b6128ed816123dc565b81146128f857600080fd5b5056fea26469706673582212206c53bceff5da26093b3a4fbec0dc11b93e761d425ad2a1ff75c204be0aaf7cf764736f6c63430008010033",
  "linkReferences": {},
  "deployedLinkReferences": {}
}