{
  "contractName": "NFT",
  "abi": [
    {
      "inputs": [],
      "stateMutability": "nonpayable",
      "type": "constructor"
    },
    {
      "anonymous": false,
      "inputs": [
        {
          "indexed": true,
          "internalType": "address",
          "name": "owner",
          "type": "address"
        },
        {
          "indexed": true,
          "internalType": "address",
          "name": "approved",
          "type": "address"
        },
        {
          "indexed": true,
          "internalType": "uint256",
          "name": "tokenId",
          "type": "uint256"
        }
      ],
      "name": "Approval",
      "type": "event"
    },
    {
      "anonymous": false,
      "inputs": [
        {
          "indexed": true,
          "internalType": "address",
          "name": "owner",
          "type": "address"
        },
        {
          "indexed": true,
          "internalType": "address",
          "name": "operator",
          "type": "address"
        },
        {
          "indexed": false,
          "internalType": "bool",
          "name": "approved",
          "type": "bool"
        }
      ],
      "name": "ApprovalForAll",
      "type": "event"
    },
    {
      "anonymous": false,
      "inputs": [
        {
          "indexed": true,
          "internalType": "address",
          "name": "from",
          "type": "address"
        },
        {
          "indexed": true,
          "internalType": "address",
          "name": "to",
          "type": "address"
        },
        {
          "indexed": true,
          "internalType": "uint256",
          "name": "tokenId",
          "type": "uint256"
        }
      ],
      "name": "Transfer",
      "type": "event"
    },
    {
      "inputs": [
        {
          "internalType": "address",
          "name": "to",
          "type": "address"
        },
        {
          "internalType": "uint256",
          "name": "tokenId",
          "type": "uint256"
        }
      ],
      "name": "approve",
      "outputs": [],
      "stateMutability": "nonpayable",
      "type": "function"
    },
    {
      "inputs": [
        {
          "internalType": "address",
          "name": "owner",
          "type": "address"
        }
      ],
      "name": "balanceOf",
      "outputs": [
        {
          "internalType": "uint256",
          "name": "",
          "type": "uint256"
        }
      ],
      "stateMutability": "view",
      "type": "function"
    },
    {
      "inputs": [],
      "name": "baseTokenURI",
      "outputs": [
        {
          "internalType": "string",
          "name": "",
          "type": "string"
        }
      ],
      "stateMutability": "view",
      "type": "function"
    },
    {
      "inputs": [
        {
          "internalType": "uint256",
          "name": "tokenId",
          "type": "uint256"
        }
      ],
      "name": "getApproved",
      "outputs": [
        {
          "internalType": "address",
          "name": "",
          "type": "address"
        }
      ],
      "stateMutability": "view",
      "type": "function"
    },
    {
      "inputs": [
        {
          "internalType": "address",
          "name": "owner",
          "type": "address"
        },
        {
          "internalType": "address",
          "name": "operator",
          "type": "address"
        }
      ],
      "name": "isApprovedForAll",
      "outputs": [
        {
          "internalType": "bool",
          "name": "",
          "type": "bool"
        }
      ],
      "stateMutability": "view",
      "type": "function"
    },
    {
      "inputs": [],
      "name": "name",
      "outputs": [
        {
          "internalType": "string",
          "name": "",
          "type": "string"
        }
      ],
      "stateMutability": "view",
      "type": "function"
    },
    {
      "inputs": [
        {
          "internalType": "uint256",
          "name": "tokenId",
          "type": "uint256"
        }
      ],
      "name": "ownerOf",
      "outputs": [
        {
          "internalType": "address",
          "name": "",
          "type": "address"
        }
      ],
      "stateMutability": "view",
      "type": "function"
    },
    {
      "inputs": [
        {
          "internalType": "address",
          "name": "from",
          "type": "address"
        },
        {
          "internalType": "address",
          "name": "to",
          "type": "address"
        },
        {
          "internalType": "uint256",
          "name": "tokenId",
          "type": "uint256"
        }
      ],
      "name": "safeTransferFrom",
      "outputs": [],
      "stateMutability": "nonpayable",
      "type": "function"
    },
    {
      "inputs": [
        {
          "internalType": "address",
          "name": "from",
          "type": "address"
        },
        {
          "internalType": "address",
          "name": "to",
          "type": "address"
        },
        {
          "internalType": "uint256",
          "name": "tokenId",
          "type": "uint256"
        },
        {
          "internalType": "bytes",
          "name": "data",
          "type": "bytes"
        }
      ],
      "name": "safeTransferFrom",
      "outputs": [],
      "stateMutability": "nonpayable",
      "type": "function"
    },
    {
      "inputs": [
        {
          "internalType": "address",
          "name": "operator",
          "type": "address"
        },
        {
          "internalType": "bool",
          "name": "approved",
          "type": "bool"
        }
      ],
      "name": "setApprovalForAll",
      "outputs": [],
      "stateMutability": "nonpayable",
      "type": "function"
    },
    {
      "inputs": [
        {
          "internalType": "bytes4",
          "name": "interfaceId",
          "type": "bytes4"
        }
      ],
      "name": "supportsInterface",
      "outputs": [
        {
          "internalType": "bool",
          "name": "",
          "type": "bool"
        }
      ],
      "stateMutability": "view",
      "type": "function"
    },
    {
      "inputs": [],
      "name": "symbol",
      "outputs": [
        {
          "internalType": "string",
          "name": "",
          "type": "string"
        }
      ],
      "stateMutability": "view",
      "type": "function"
    },
    {
      "inputs": [
        {
          "internalType": "uint256",
          "name": "tokenId",
          "type": "uint256"
        }
      ],
      "name": "tokenURI",
      "outputs": [
        {
          "internalType": "string",
          "name": "",
          "type": "string"
        }
      ],
      "stateMutability": "view",
      "type": "function"
    },
    {
      "inputs": [
        {
          "internalType": "address",
          "name": "from",
          "type": "address"
        },
        {
          "internalType": "address",
          "name": "to",
          "type": "address"
        },
        {
          "internalType": "uint256",
          "name": "tokenId",
          "type": "uint256"
        }
      ],
      "name": "transferFrom",
      "outputs": [],
      "stateMutability": "nonpayable",
      "type": "function"
    },
    {
      "inputs": [
        {
          "internalType": "address",
          "name": "recipient",
          "type": "address"
        }
      ],
      "name": "mintTo",
      "outputs": [
        {
          "internalType": "uint256",
          "name": "",
          "type": "uint256"
        }
      ],
      "stateMutability": "payable",
      "type": "function"
    },
    {
      "inputs": [
        {
          "internalType": "string",
          "name": "_baseTokenURI",
          "type": "string"
        }
      ],
      "name": "setBaseTokenURI",
      "outputs": [],
      "stateMutability": "nonpayable",
      "type": "function"
    },
    {
      "inputs": [],
      "name": "getTokenCount",
      "outputs": [
        {
          "internalType": "uint256",
          "name": "",
          "type": "uint256"
        }
      ],
      "stateMutability": "view",
      "type": "function"
    }
  ],
  "bytecode": "0x608060405266038d7ea4c680006007553480156200001c57600080fd5b506040518060400160405280600b81526020017f4e46545475746f7269616c0000000000000000000000000000000000000000008152506040518060400160405280600381526020017f4e4654000000000000000000000000000000000000000000000000000000000081525081600090816200009a919062000350565b508060019081620000ac919062000350565b5050506040518060200160405280600081525060089081620000cf919062000350565b5062000437565b600081519050919050565b7f4e487b7100000000000000000000000000000000000000000000000000000000600052604160045260246000fd5b7f4e487b7100000000000000000000000000000000000000000000000000000000600052602260045260246000fd5b600060028204905060018216806200015857607f821691505b6020821081036200016e576200016d62000110565b5b50919050565b60008190508160005260206000209050919050565b60006020601f8301049050919050565b600082821b905092915050565b600060088302620001d87fffffffffffffffffffffffffffffffffffffffffffffffffffffffffffffffff8262000199565b620001e4868362000199565b95508019841693508086168417925050509392505050565b6000819050919050565b6000819050919050565b6000620002316200022b6200022584620001fc565b62000206565b620001fc565b9050919050565b6000819050919050565b6200024d8362000210565b620002656200025c8262000238565b848454620001a6565b825550505050565b600090565b6200027c6200026d565b6200028981848462000242565b505050565b5b81811015620002b157620002a560008262000272565b6001810190506200028f565b5050565b601f8211156200030057620002ca8162000174565b620002d58462000189565b81016020851015620002e5578190505b620002fd620002f48562000189565b8301826200028e565b50505b505050565b600082821c905092915050565b6000620003256000198460080262000305565b1980831691505092915050565b600062000340838362000312565b9150826002028217905092915050565b6200035b82620000d6565b67ffffffffffffffff811115620003775762000376620000e1565b5b6200038382546200013f565b62000390828285620002b5565b600060209050601f831160018114620003c85760008415620003b3578287015190505b620003bf858262000332565b8655506200042f565b601f198416620003d88662000174565b60005b828110156200040257848901518255600182019150602085019450602081019050620003db565b868310156200042257848901516200041e601f89168262000312565b8355505b6001600288020188555050505b505050505050565b612b2380620004476000396000f3fe6080604052600436106100fe5760003560e01c806370a0823111610095578063a22cb46511610064578063a22cb4651461034c578063b88d4fde14610375578063c87b56dd1461039e578063d547cfb7146103db578063e985e9c514610406576100fe565b806370a0823114610289578063755edd17146102c657806378a89567146102f657806395d89b4114610321576100fe565b806323b872dd116100d157806323b872dd146101d157806330176e13146101fa57806342842e0e146102235780636352211e1461024c576100fe565b806301ffc9a71461010357806306fdde0314610140578063081812fc1461016b578063095ea7b3146101a8575b600080fd5b34801561010f57600080fd5b5061012a6004803603810190610125919061191c565b610443565b6040516101379190611964565b60405180910390f35b34801561014c57600080fd5b50610155610525565b6040516101629190611a18565b60405180910390f35b34801561017757600080fd5b50610192600480360381019061018d9190611a70565b6105b7565b60405161019f9190611ade565b60405180910390f35b3480156101b457600080fd5b506101cf60048036038101906101ca9190611b25565b6105fd565b005b3480156101dd57600080fd5b506101f860048036038101906101f39190611b65565b610714565b005b34801561020657600080fd5b50610221600480360381019061021c9190611ced565b610774565b005b34801561022f57600080fd5b5061024a60048036038101906102459190611b65565b610787565b005b34801561025857600080fd5b50610273600480360381019061026e9190611a70565b6107a7565b6040516102809190611ade565b60405180910390f35b34801561029557600080fd5b506102b060048036038101906102ab9190611d36565b610858565b6040516102bd9190611d72565b60405180910390f35b6102e060048036038101906102db9190611d36565b61090f565b6040516102ed9190611d72565b60405180910390f35b34801561030257600080fd5b5061030b61094a565b6040516103189190611d72565b60405180910390f35b34801561032d57600080fd5b5061033661095b565b6040516103439190611a18565b60405180910390f35b34801561035857600080fd5b50610373600480360381019061036e9190611db9565b6109ed565b005b34801561038157600080fd5b5061039c60048036038101906103979190611e9a565b610a03565b005b3480156103aa57600080fd5b506103c560048036038101906103c09190611a70565b610a65565b6040516103d29190611a18565b60405180910390f35b3480156103e757600080fd5b506103f0610acd565b6040516103fd9190611a18565b60405180910390f35b34801561041257600080fd5b5061042d60048036038101906104289190611f1d565b610b5b565b60405161043a9190611964565b60405180910390f35b60007f80ac58cd000000000000000000000000000000000000000000000000000000007bffffffffffffffffffffffffffffffffffffffffffffffffffffffff1916827bffffffffffffffffffffffffffffffffffffffffffffffffffffffff1916148061050e57507f5b5e139f000000000000000000000000000000000000000000000000000000007bffffffffffffffffffffffffffffffffffffffffffffffffffffffff1916827bffffffffffffffffffffffffffffffffffffffffffffffffffffffff1916145b8061051e575061051d82610bef565b5b9050919050565b60606000805461053490611f8c565b80601f016020809104026020016040519081016040528092919081815260200182805461056090611f8c565b80156105ad5780601f10610582576101008083540402835291602001916105ad565b820191906000526020600020905b81548152906001019060200180831161059057829003601f168201915b5050505050905090565b60006105c282610c59565b6004600083815260200190815260200160002060009054906101000a900473ffffffffffffffffffffffffffffffffffffffff169050919050565b6000610608826107a7565b90508073ffffffffffffffffffffffffffffffffffffffff168373ffffffffffffffffffffffffffffffffffffffff1603610678576040517f08c379a000000000000000000000000000000000000000000000000000000000815260040161066f9061202f565b60405180910390fd5b8073ffffffffffffffffffffffffffffffffffffffff16610697610ca4565b73ffffffffffffffffffffffffffffffffffffffff1614806106c657506106c5816106c0610ca4565b610b5b565b5b610705576040517f08c379a00000000000000000000000000000000000000000000000000000000081526004016106fc906120c1565b60405180910390fd5b61070f8383610cac565b505050565b61072561071f610ca4565b82610d65565b610764576040517f08c379a000000000000000000000000000000000000000000000000000000000815260040161075b90612153565b60405180910390fd5b61076f838383610dfa565b505050565b8060089081610783919061231f565b5050565b6107a283838360405180602001604052806000815250610a03565b505050565b6000806002600084815260200190815260200160002060009054906101000a900473ffffffffffffffffffffffffffffffffffffffff169050600073ffffffffffffffffffffffffffffffffffffffff168173ffffffffffffffffffffffffffffffffffffffff160361084f576040517f08c379a00000000000000000000000000000000000000000000000000000000081526004016108469061243d565b60405180910390fd5b80915050919050565b60008073ffffffffffffffffffffffffffffffffffffffff168273ffffffffffffffffffffffffffffffffffffffff16036108c8576040517f08c379a00000000000000000000000000000000000000000000000000000000081526004016108bf906124cf565b60405180910390fd5b600360008373ffffffffffffffffffffffffffffffffffffffff1673ffffffffffffffffffffffffffffffffffffffff168152602001908152602001600020549050919050565b6000600754341461091f57600080fd5b6109296006611060565b60006109356006611076565b90506109418382611084565b80915050919050565b60006109566006611076565b905090565b60606001805461096a90611f8c565b80601f016020809104026020016040519081016040528092919081815260200182805461099690611f8c565b80156109e35780601f106109b8576101008083540402835291602001916109e3565b820191906000526020600020905b8154815290600101906020018083116109c657829003601f168201915b5050505050905090565b6109ff6109f8610ca4565b83836110a2565b5050565b610a14610a0e610ca4565b83610d65565b610a53576040517f08c379a0000000000000000000000000000000000000000000000000000000008152600401610a4a90612153565b60405180910390fd5b610a5f8484848461120e565b50505050565b6060610a7082610c59565b6000610a7a61126a565b90506000815111610a9a5760405180602001604052806000815250610ac5565b80610aa4846112fc565b604051602001610ab592919061252b565b6040516020818303038152906040525b915050919050565b60088054610ada90611f8c565b80601f0160208091040260200160405190810160405280929190818152602001828054610b0690611f8c565b8015610b535780601f10610b2857610100808354040283529160200191610b53565b820191906000526020600020905b815481529060010190602001808311610b3657829003601f168201915b505050505081565b6000600560008473ffffffffffffffffffffffffffffffffffffffff1673ffffffffffffffffffffffffffffffffffffffff16815260200190815260200160002060008373ffffffffffffffffffffffffffffffffffffffff1673ffffffffffffffffffffffffffffffffffffffff16815260200190815260200160002060009054906101000a900460ff16905092915050565b60007f01ffc9a7000000000000000000000000000000000000000000000000000000007bffffffffffffffffffffffffffffffffffffffffffffffffffffffff1916827bffffffffffffffffffffffffffffffffffffffffffffffffffffffff1916149050919050565b610c628161145c565b610ca1576040517f08c379a0000000000000000000000000000000000000000000000000000000008152600401610c989061243d565b60405180910390fd5b50565b600033905090565b816004600083815260200190815260200160002060006101000a81548173ffffffffffffffffffffffffffffffffffffffff021916908373ffffffffffffffffffffffffffffffffffffffff160217905550808273ffffffffffffffffffffffffffffffffffffffff16610d1f836107a7565b73ffffffffffffffffffffffffffffffffffffffff167f8c5be1e5ebec7d5bd14f71427d1e84f3dd0314c0f7b2291e5b200ac8c7c3b92560405160405180910390a45050565b600080610d71836107a7565b90508073ffffffffffffffffffffffffffffffffffffffff168473ffffffffffffffffffffffffffffffffffffffff161480610db35750610db28185610b5b565b5b80610df157508373ffffffffffffffffffffffffffffffffffffffff16610dd9846105b7565b73ffffffffffffffffffffffffffffffffffffffff16145b91505092915050565b8273ffffffffffffffffffffffffffffffffffffffff16610e1a826107a7565b73ffffffffffffffffffffffffffffffffffffffff1614610e70576040517f08c379a0000000000000000000000000000000000000000000000000000000008152600401610e67906125c1565b60405180910390fd5b600073ffffffffffffffffffffffffffffffffffffffff168273ffffffffffffffffffffffffffffffffffffffff1603610edf576040517f08c379a0000000000000000000000000000000000000000000000000000000008152600401610ed690612653565b60405180910390fd5b610eea8383836114c8565b610ef5600082610cac565b6001600360008573ffffffffffffffffffffffffffffffffffffffff1673ffffffffffffffffffffffffffffffffffffffff1681526020019081526020016000206000828254610f4591906126a2565b925050819055506001600360008473ffffffffffffffffffffffffffffffffffffffff1673ffffffffffffffffffffffffffffffffffffffff1681526020019081526020016000206000828254610f9c91906126d6565b92505081905550816002600083815260200190815260200160002060006101000a81548173ffffffffffffffffffffffffffffffffffffffff021916908373ffffffffffffffffffffffffffffffffffffffff160217905550808273ffffffffffffffffffffffffffffffffffffffff168473ffffffffffffffffffffffffffffffffffffffff167fddf252ad1be2c89b69c2b068fc378daa952ba7f163c4a11628f55a4df523b3ef60405160405180910390a461105b8383836114cd565b505050565b6001816000016000828254019250508190555050565b600081600001549050919050565b61109e8282604051806020016040528060008152506114d2565b5050565b8173ffffffffffffffffffffffffffffffffffffffff168373ffffffffffffffffffffffffffffffffffffffff1603611110576040517f08c379a000000000000000000000000000000000000000000000000000000000815260040161110790612778565b60405180910390fd5b80600560008573ffffffffffffffffffffffffffffffffffffffff1673ffffffffffffffffffffffffffffffffffffffff16815260200190815260200160002060008473ffffffffffffffffffffffffffffffffffffffff1673ffffffffffffffffffffffffffffffffffffffff16815260200190815260200160002060006101000a81548160ff0219169083151502179055508173ffffffffffffffffffffffffffffffffffffffff168373ffffffffffffffffffffffffffffffffffffffff167f17307eab39ab6107e8899845ad3d59bd9653f200f220920489ca2b5937696c31836040516112019190611964565b60405180910390a3505050565b611219848484610dfa565b6112258484848461152d565b611264576040517f08c379a000000000000000000000000000000000000000000000000000000000815260040161125b9061280a565b60405180910390fd5b50505050565b60606008805461127990611f8c565b80601f01602080910402602001604051908101604052809291908181526020018280546112a590611f8c565b80156112f25780601f106112c7576101008083540402835291602001916112f2565b820191906000526020600020905b8154815290600101906020018083116112d557829003601f168201915b5050505050905090565b606060008203611343576040518060400160405280600181526020017f30000000000000000000000000000000000000000000000000000000000000008152509050611457565b600082905060005b6000821461137557808061135e9061282a565b915050600a8261136e91906128a1565b915061134b565b60008167ffffffffffffffff81111561139157611390611bc2565b5b6040519080825280601f01601f1916602001820160405280156113c35781602001600182028036833780820191505090505b5090505b60008514611450576001826113dc91906126a2565b9150600a856113eb91906128d2565b60306113f791906126d6565b60f81b81838151811061140d5761140c612903565b5b60200101907effffffffffffffffffffffffffffffffffffffffffffffffffffffffffffff1916908160001a905350600a8561144991906128a1565b94506113c7565b8093505050505b919050565b60008073ffffffffffffffffffffffffffffffffffffffff166002600084815260200190815260200160002060009054906101000a900473ffffffffffffffffffffffffffffffffffffffff1673ffffffffffffffffffffffffffffffffffffffff1614159050919050565b505050565b505050565b6114dc83836116b4565b6114e9600084848461152d565b611528576040517f08c379a000000000000000000000000000000000000000000000000000000000815260040161151f9061280a565b60405180910390fd5b505050565b600061154e8473ffffffffffffffffffffffffffffffffffffffff1661188d565b156116a7578373ffffffffffffffffffffffffffffffffffffffff1663150b7a02611577610ca4565b8786866040518563ffffffff1660e01b81526004016115999493929190612987565b6020604051808303816000875af19250505080156115d557506040513d601f19601f820116820180604052508101906115d291906129e8565b60015b611657573d8060008114611605576040519150601f19603f3d011682016040523d82523d6000602084013e61160a565b606091505b50600081510361164f576040517f08c379a00000000000000000000000000000000000000000000000000000000081526004016116469061280a565b60405180910390fd5b805181602001fd5b63150b7a0260e01b7bffffffffffffffffffffffffffffffffffffffffffffffffffffffff1916817bffffffffffffffffffffffffffffffffffffffffffffffffffffffff1916149150506116ac565b600190505b949350505050565b600073ffffffffffffffffffffffffffffffffffffffff168273ffffffffffffffffffffffffffffffffffffffff1603611723576040517f08c379a000000000000000000000000000000000000000000000000000000000815260040161171a90612a61565b60405180910390fd5b61172c8161145c565b1561176c576040517f08c379a000000000000000000000000000000000000000000000000000000000815260040161176390612acd565b60405180910390fd5b611778600083836114c8565b6001600360008473ffffffffffffffffffffffffffffffffffffffff1673ffffffffffffffffffffffffffffffffffffffff16815260200190815260200160002060008282546117c891906126d6565b92505081905550816002600083815260200190815260200160002060006101000a81548173ffffffffffffffffffffffffffffffffffffffff021916908373ffffffffffffffffffffffffffffffffffffffff160217905550808273ffffffffffffffffffffffffffffffffffffffff16600073ffffffffffffffffffffffffffffffffffffffff167fddf252ad1be2c89b69c2b068fc378daa952ba7f163c4a11628f55a4df523b3ef60405160405180910390a4611889600083836114cd565b5050565b6000808273ffffffffffffffffffffffffffffffffffffffff163b119050919050565b6000604051905090565b600080fd5b600080fd5b60007fffffffff0000000000000000000000000000000000000000000000000000000082169050919050565b6118f9816118c4565b811461190457600080fd5b50565b600081359050611916816118f0565b92915050565b600060208284031215611932576119316118ba565b5b600061194084828501611907565b91505092915050565b60008115159050919050565b61195e81611949565b82525050565b60006020820190506119796000830184611955565b92915050565b600081519050919050565b600082825260208201905092915050565b60005b838110156119b957808201518184015260208101905061199e565b838111156119c8576000848401525b50505050565b6000601f19601f8301169050919050565b60006119ea8261197f565b6119f4818561198a565b9350611a0481856020860161199b565b611a0d816119ce565b840191505092915050565b60006020820190508181036000830152611a3281846119df565b905092915050565b6000819050919050565b611a4d81611a3a565b8114611a5857600080fd5b50565b600081359050611a6a81611a44565b92915050565b600060208284031215611a8657611a856118ba565b5b6000611a9484828501611a5b565b91505092915050565b600073ffffffffffffffffffffffffffffffffffffffff82169050919050565b6000611ac882611a9d565b9050919050565b611ad881611abd565b82525050565b6000602082019050611af36000830184611acf565b92915050565b611b0281611abd565b8114611b0d57600080fd5b50565b600081359050611b1f81611af9565b92915050565b60008060408385031215611b3c57611b3b6118ba565b5b6000611b4a85828601611b10565b9250506020611b5b85828601611a5b565b9150509250929050565b600080600060608486031215611b7e57611b7d6118ba565b5b6000611b8c86828701611b10565b9350506020611b9d86828701611b10565b9250506040611bae86828701611a5b565b9150509250925092565b600080fd5b600080fd5b7f4e487b7100000000000000000000000000000000000000000000000000000000600052604160045260246000fd5b611bfa826119ce565b810181811067ffffffffffffffff82111715611c1957611c18611bc2565b5b80604052505050565b6000611c2c6118b0565b9050611c388282611bf1565b919050565b600067ffffffffffffffff821115611c5857611c57611bc2565b5b611c61826119ce565b9050602081019050919050565b82818337600083830152505050565b6000611c90611c8b84611c3d565b611c22565b905082815260208101848484011115611cac57611cab611bbd565b5b611cb7848285611c6e565b509392505050565b600082601f830112611cd457611cd3611bb8565b5b8135611ce4848260208601611c7d565b91505092915050565b600060208284031215611d0357611d026118ba565b5b600082013567ffffffffffffffff811115611d2157611d206118bf565b5b611d2d84828501611cbf565b91505092915050565b600060208284031215611d4c57611d4b6118ba565b5b6000611d5a84828501611b10565b91505092915050565b611d6c81611a3a565b82525050565b6000602082019050611d876000830184611d63565b92915050565b611d9681611949565b8114611da157600080fd5b50565b600081359050611db381611d8d565b92915050565b60008060408385031215611dd057611dcf6118ba565b5b6000611dde85828601611b10565b9250506020611def85828601611da4565b9150509250929050565b600067ffffffffffffffff821115611e1457611e13611bc2565b5b611e1d826119ce565b9050602081019050919050565b6000611e3d611e3884611df9565b611c22565b905082815260208101848484011115611e5957611e58611bbd565b5b611e64848285611c6e565b509392505050565b600082601f830112611e8157611e80611bb8565b5b8135611e91848260208601611e2a565b91505092915050565b60008060008060808587031215611eb457611eb36118ba565b5b6000611ec287828801611b10565b9450506020611ed387828801611b10565b9350506040611ee487828801611a5b565b925050606085013567ffffffffffffffff811115611f0557611f046118bf565b5b611f1187828801611e6c565b91505092959194509250565b60008060408385031215611f3457611f336118ba565b5b6000611f4285828601611b10565b9250506020611f5385828601611b10565b9150509250929050565b7f4e487b7100000000000000000000000000000000000000000000000000000000600052602260045260246000fd5b60006002820490506001821680611fa457607f821691505b602082108103611fb757611fb6611f5d565b5b50919050565b7f4552433732313a20617070726f76616c20746f2063757272656e74206f776e6560008201527f7200000000000000000000000000000000000000000000000000000000000000602082015250565b600061201960218361198a565b915061202482611fbd565b604082019050919050565b600060208201905081810360008301526120488161200c565b9050919050565b7f4552433732313a20617070726f76652063616c6c6572206973206e6f7420746f60008201527f6b656e206f776e6572206e6f7220617070726f76656420666f7220616c6c0000602082015250565b60006120ab603e8361198a565b91506120b68261204f565b604082019050919050565b600060208201905081810360008301526120da8161209e565b9050919050565b7f4552433732313a2063616c6c6572206973206e6f7420746f6b656e206f776e6560008201527f72206e6f7220617070726f766564000000000000000000000000000000000000602082015250565b600061213d602e8361198a565b9150612148826120e1565b604082019050919050565b6000602082019050818103600083015261216c81612130565b9050919050565b60008190508160005260206000209050919050565b60006020601f8301049050919050565b600082821b905092915050565b6000600883026121d57fffffffffffffffffffffffffffffffffffffffffffffffffffffffffffffffff82612198565b6121df8683612198565b95508019841693508086168417925050509392505050565b6000819050919050565b600061221c61221761221284611a3a565b6121f7565b611a3a565b9050919050565b6000819050919050565b61223683612201565b61224a61224282612223565b8484546121a5565b825550505050565b600090565b61225f612252565b61226a81848461222d565b505050565b5b8181101561228e57612283600082612257565b600181019050612270565b5050565b601f8211156122d3576122a481612173565b6122ad84612188565b810160208510156122bc578190505b6122d06122c885612188565b83018261226f565b50505b505050565b600082821c905092915050565b60006122f6600019846008026122d8565b1980831691505092915050565b600061230f83836122e5565b9150826002028217905092915050565b6123288261197f565b67ffffffffffffffff81111561234157612340611bc2565b5b61234b8254611f8c565b612356828285612292565b600060209050601f8311600181146123895760008415612377578287015190505b6123818582612303565b8655506123e9565b601f19841661239786612173565b60005b828110156123bf5784890151825560018201915060208501945060208101905061239a565b868310156123dc57848901516123d8601f8916826122e5565b8355505b6001600288020188555050505b505050505050565b7f4552433732313a20696e76616c696420746f6b656e2049440000000000000000600082015250565b600061242760188361198a565b9150612432826123f1565b602082019050919050565b600060208201905081810360008301526124568161241a565b9050919050565b7f4552433732313a2061646472657373207a65726f206973206e6f74206120766160008201527f6c6964206f776e65720000000000000000000000000000000000000000000000602082015250565b60006124b960298361198a565b91506124c48261245d565b604082019050919050565b600060208201905081810360008301526124e8816124ac565b9050919050565b600081905092915050565b60006125058261197f565b61250f81856124ef565b935061251f81856020860161199b565b80840191505092915050565b600061253782856124fa565b915061254382846124fa565b91508190509392505050565b7f4552433732313a207472616e736665722066726f6d20696e636f72726563742060008201527f6f776e6572000000000000000000000000000000000000000000000000000000602082015250565b60006125ab60258361198a565b91506125b68261254f565b604082019050919050565b600060208201905081810360008301526125da8161259e565b9050919050565b7f4552433732313a207472616e7366657220746f20746865207a65726f2061646460008201527f7265737300000000000000000000000000000000000000000000000000000000602082015250565b600061263d60248361198a565b9150612648826125e1565b604082019050919050565b6000602082019050818103600083015261266c81612630565b9050919050565b7f4e487b7100000000000000000000000000000000000000000000000000000000600052601160045260246000fd5b60006126ad82611a3a565b91506126b883611a3a565b9250828210156126cb576126ca612673565b5b828203905092915050565b60006126e182611a3a565b91506126ec83611a3a565b9250827fffffffffffffffffffffffffffffffffffffffffffffffffffffffffffffffff0382111561272157612720612673565b5b828201905092915050565b7f4552433732313a20617070726f766520746f2063616c6c657200000000000000600082015250565b600061276260198361198a565b915061276d8261272c565b602082019050919050565b6000602082019050818103600083015261279181612755565b9050919050565b7f4552433732313a207472616e7366657220746f206e6f6e20455243373231526560008201527f63656976657220696d706c656d656e7465720000000000000000000000000000602082015250565b60006127f460328361198a565b91506127ff82612798565b604082019050919050565b60006020820190508181036000830152612823816127e7565b9050919050565b600061283582611a3a565b91507fffffffffffffffffffffffffffffffffffffffffffffffffffffffffffffffff820361286757612866612673565b5b600182019050919050565b7f4e487b7100000000000000000000000000000000000000000000000000000000600052601260045260246000fd5b60006128ac82611a3a565b91506128b783611a3a565b9250826128c7576128c6612872565b5b828204905092915050565b60006128dd82611a3a565b91506128e883611a3a565b9250826128f8576128f7612872565b5b828206905092915050565b7f4e487b7100000000000000000000000000000000000000000000000000000000600052603260045260246000fd5b600081519050919050565b600082825260208201905092915050565b600061295982612932565b612963818561293d565b935061297381856020860161199b565b61297c816119ce565b840191505092915050565b600060808201905061299c6000830187611acf565b6129a96020830186611acf565b6129b66040830185611d63565b81810360608301526129c8818461294e565b905095945050505050565b6000815190506129e2816118f0565b92915050565b6000602082840312156129fe576129fd6118ba565b5b6000612a0c848285016129d3565b91505092915050565b7f4552433732313a206d696e7420746f20746865207a65726f2061646472657373600082015250565b6000612a4b60208361198a565b9150612a5682612a15565b602082019050919050565b60006020820190508181036000830152612a7a81612a3e565b9050919050565b7f4552433732313a20746f6b656e20616c7265616479206d696e74656400000000600082015250565b6000612ab7601c8361198a565b9150612ac282612a81565b602082019050919050565b60006020820190508181036000830152612ae681612aaa565b905091905056fea26469706673582212203873fae45f7961ecc0b0a992cc385db5546503445f43789540c9825f378f144164736f6c634300080f0033",
  "immutableReferences": {},
  "source": "// SPDX-License-Identifier: MIT\r\npragma solidity ^0.8.1;\r\n\r\nimport \"@openzeppelin/contracts/token/ERC721/ERC721.sol\";\r\nimport \"@openzeppelin/contracts/utils/Counters.sol\";\r\n\r\ncontract NFT is ERC721 {\r\n  using Counters for Counters.Counter;\r\n\r\n  Counters.Counter private currentTokenId;\r\n  uint256 tokenPrice = 0.001 ether;\r\n\r\n  /// @dev Base token URI used as a prefix by tokenURI().\r\n  string public baseTokenURI;\r\n\r\n  constructor() ERC721(\"NFTTutorial\", \"NFT\") {\r\n    baseTokenURI = \"\";\r\n  }\r\n\r\n  function mintTo(address recipient) public payable returns (uint256) {\r\n    require(msg.value == tokenPrice);\r\n    currentTokenId.increment();\r\n    uint256 newItemId = currentTokenId.current();\r\n    _safeMint(recipient, newItemId);\r\n    return newItemId;\r\n  }\r\n\r\n\r\n  /// @dev Returns an URI for a given token ID\r\n  function _baseURI() internal view virtual override returns (string memory) {\r\n    return baseTokenURI;\r\n  }\r\n\r\n  /// @dev Sets the base token URI prefix.\r\n  function setBaseTokenURI(string memory _baseTokenURI) public {\r\n    baseTokenURI = _baseTokenURI;\r\n  }\r\n\r\n  function getTokenCount() public view returns (uint256) {\r\n    return currentTokenId.current();\r\n  }\r\n}",
  "sourcePath": "C:\\Projects\\test3(blockchain)\\nft-tutorial\\contracts\\NFT.sol",
  "compiler": {
    "name": "solc",
    "version": "0.8.15+commit.e14f2714.Emscripten.clang"
  },
  "schemaVersion": "3.4.8",
  "updatedAt": "2022-08-10T13:09:15.026Z",
  "devdoc": {
    "kind": "dev",
    "methods": {
      "approve(address,uint256)": {
        "details": "See {IERC721-approve}."
      },
      "balanceOf(address)": {
        "details": "See {IERC721-balanceOf}."
      },
      "getApproved(uint256)": {
        "details": "See {IERC721-getApproved}."
      },
      "isApprovedForAll(address,address)": {
        "details": "See {IERC721-isApprovedForAll}."
      },
      "name()": {
        "details": "See {IERC721Metadata-name}."
      },
      "ownerOf(uint256)": {
        "details": "See {IERC721-ownerOf}."
      },
      "safeTransferFrom(address,address,uint256)": {
        "details": "See {IERC721-safeTransferFrom}."
      },
      "safeTransferFrom(address,address,uint256,bytes)": {
        "details": "See {IERC721-safeTransferFrom}."
      },
      "setApprovalForAll(address,bool)": {
        "details": "See {IERC721-setApprovalForAll}."
      },
      "setBaseTokenURI(string)": {
        "details": "Sets the base token URI prefix."
      },
      "supportsInterface(bytes4)": {
        "details": "See {IERC165-supportsInterface}."
      },
      "symbol()": {
        "details": "See {IERC721Metadata-symbol}."
      },
      "tokenURI(uint256)": {
        "details": "See {IERC721Metadata-tokenURI}."
      },
      "transferFrom(address,address,uint256)": {
        "details": "See {IERC721-transferFrom}."
      }
    },
    "stateVariables": {
      "baseTokenURI": {
        "details": "Base token URI used as a prefix by tokenURI()."
      }
    },
    "version": 1
  },
  "userdoc": {
    "kind": "user",
    "methods": {},
    "version": 1
  }
}